{
  "_format": "hh-sol-artifact-1",
  "contractName": "MetaHumanGovernor",
  "sourceName": "contracts/governance/MetaHumanGovernor.sol",
  "abi": [
    {
      "inputs": [
        {
          "internalType": "contract IVotes",
          "name": "_token",
          "type": "address"
        },
        {
          "internalType": "contract TimelockController",
          "name": "_timelock",
          "type": "address"
        },
        {
          "components": [
            {
              "internalType": "bytes32",
              "name": "contractAddress",
              "type": "bytes32"
            },
            {
              "internalType": "uint16",
              "name": "chainId",
              "type": "uint16"
            }
          ],
          "internalType": "struct CrossChainGovernorCountingSimple.CrossChainAddress[]",
          "name": "_spokeContracts",
          "type": "tuple[]"
        },
        {
          "internalType": "uint16",
          "name": "_chainId",
          "type": "uint16"
        },
        {
          "internalType": "address",
          "name": "_wormholeRelayerAddress",
          "type": "address"
        },
        {
          "internalType": "address",
          "name": "_magistrateAddress",
          "type": "address"
        },
        {
          "internalType": "uint256",
          "name": "_secondsPerBlock",
          "type": "uint256"
        },
        {
          "internalType": "uint48",
          "name": "_votingDelay",
          "type": "uint48"
        },
        {
          "internalType": "uint32",
          "name": "_votingPeriod",
          "type": "uint32"
        },
        {
          "internalType": "uint256",
          "name": "_proposalThreshold",
          "type": "uint256"
        },
        {
          "internalType": "uint256",
          "name": "_quorumFraction",
          "type": "uint256"
        }
      ],
      "stateMutability": "nonpayable",
      "type": "constructor"
    },
    {
      "inputs": [],
      "name": "CollectionPhaseAlreadyStarted",
      "type": "error"
    },
    {
      "inputs": [],
      "name": "CollectionPhaseUnfinished",
      "type": "error"
    },
    {
      "inputs": [],
      "name": "Empty",
      "type": "error"
    },
    {
      "inputs": [],
      "name": "InvalidIntendedRecipient",
      "type": "error"
    },
    {
      "inputs": [],
      "name": "InvalidShortString",
      "type": "error"
    },
    {
      "inputs": [],
      "name": "MessageAlreadyProcessed",
      "type": "error"
    },
    {
      "inputs": [],
      "name": "OnlyMessagesFromSpokeReceived",
      "type": "error"
    },
    {
      "inputs": [],
      "name": "OnlyRelayerAllowed",
      "type": "error"
    },
    {
      "inputs": [],
      "name": "ProposalAlreadyInitialized",
      "type": "error"
    },
    {
      "inputs": [],
      "name": "RequestAfterVotePeriodOver",
      "type": "error"
    },
    {
      "inputs": [
        {
          "internalType": "string",
          "name": "str",
          "type": "string"
        }
      ],
      "name": "StringTooLong",
      "type": "error"
    },
    {
      "anonymous": false,
      "inputs": [],
      "name": "EIP712DomainChanged",
      "type": "event"
    },
    {
      "anonymous": false,
      "inputs": [
        {
          "indexed": true,
          "internalType": "address",
          "name": "previousMagistrate",
          "type": "address"
        },
        {
          "indexed": true,
          "internalType": "address",
          "name": "newMagistrate",
          "type": "address"
        }
      ],
      "name": "MagistrateChanged",
      "type": "event"
    },
    {
      "anonymous": false,
      "inputs": [
        {
          "indexed": true,
          "internalType": "address",
          "name": "previousOwner",
          "type": "address"
        },
        {
          "indexed": true,
          "internalType": "address",
          "name": "newOwner",
          "type": "address"
        }
      ],
      "name": "OwnershipTransferred",
      "type": "event"
    },
    {
      "anonymous": false,
      "inputs": [
        {
          "indexed": false,
          "internalType": "uint256",
          "name": "proposalId",
          "type": "uint256"
        }
      ],
      "name": "ProposalCanceled",
      "type": "event"
    },
    {
      "anonymous": false,
      "inputs": [
        {
          "indexed": false,
          "internalType": "uint256",
          "name": "proposalId",
          "type": "uint256"
        },
        {
          "indexed": false,
          "internalType": "address",
          "name": "proposer",
          "type": "address"
        },
        {
          "indexed": false,
          "internalType": "address[]",
          "name": "targets",
          "type": "address[]"
        },
        {
          "indexed": false,
          "internalType": "uint256[]",
          "name": "values",
          "type": "uint256[]"
        },
        {
          "indexed": false,
          "internalType": "string[]",
          "name": "signatures",
          "type": "string[]"
        },
        {
          "indexed": false,
          "internalType": "bytes[]",
          "name": "calldatas",
          "type": "bytes[]"
        },
        {
          "indexed": false,
          "internalType": "uint256",
          "name": "voteStart",
          "type": "uint256"
        },
        {
          "indexed": false,
          "internalType": "uint256",
          "name": "voteEnd",
          "type": "uint256"
        },
        {
          "indexed": false,
          "internalType": "string",
          "name": "description",
          "type": "string"
        }
      ],
      "name": "ProposalCreated",
      "type": "event"
    },
    {
      "anonymous": false,
      "inputs": [
        {
          "indexed": false,
          "internalType": "uint256",
          "name": "proposalId",
          "type": "uint256"
        }
      ],
      "name": "ProposalExecuted",
      "type": "event"
    },
    {
      "anonymous": false,
      "inputs": [
        {
          "indexed": false,
          "internalType": "uint256",
          "name": "proposalId",
          "type": "uint256"
        },
        {
          "indexed": false,
          "internalType": "uint256",
          "name": "eta",
          "type": "uint256"
        }
      ],
      "name": "ProposalQueued",
      "type": "event"
    },
    {
      "anonymous": false,
      "inputs": [
        {
          "indexed": false,
          "internalType": "uint256",
          "name": "oldProposalThreshold",
          "type": "uint256"
        },
        {
          "indexed": false,
          "internalType": "uint256",
          "name": "newProposalThreshold",
          "type": "uint256"
        }
      ],
      "name": "ProposalThresholdSet",
      "type": "event"
    },
    {
      "anonymous": false,
      "inputs": [
        {
          "indexed": false,
          "internalType": "uint256",
          "name": "oldQuorumNumerator",
          "type": "uint256"
        },
        {
          "indexed": false,
          "internalType": "uint256",
          "name": "newQuorumNumerator",
          "type": "uint256"
        }
      ],
      "name": "QuorumNumeratorUpdated",
      "type": "event"
    },
    {
      "anonymous": false,
      "inputs": [
        {
          "components": [
            {
              "internalType": "bytes32",
              "name": "contractAddress",
              "type": "bytes32"
            },
            {
              "internalType": "uint16",
              "name": "chainId",
              "type": "uint16"
            }
          ],
          "indexed": true,
          "internalType": "struct CrossChainGovernorCountingSimple.CrossChainAddress[]",
          "name": "spokes",
          "type": "tuple[]"
        }
      ],
      "name": "SpokesUpdated",
      "type": "event"
    },
    {
      "anonymous": false,
      "inputs": [
        {
          "indexed": false,
          "internalType": "address",
          "name": "oldTimelock",
          "type": "address"
        },
        {
          "indexed": false,
          "internalType": "address",
          "name": "newTimelock",
          "type": "address"
        }
      ],
      "name": "TimelockChange",
      "type": "event"
    },
    {
      "anonymous": false,
      "inputs": [
        {
          "indexed": true,
          "internalType": "address",
          "name": "voter",
          "type": "address"
        },
        {
          "indexed": false,
          "internalType": "uint256",
          "name": "proposalId",
          "type": "uint256"
        },
        {
          "indexed": false,
          "internalType": "uint8",
          "name": "support",
          "type": "uint8"
        },
        {
          "indexed": false,
          "internalType": "uint256",
          "name": "weight",
          "type": "uint256"
        },
        {
          "indexed": false,
          "internalType": "string",
          "name": "reason",
          "type": "string"
        }
      ],
      "name": "VoteCast",
      "type": "event"
    },
    {
      "anonymous": false,
      "inputs": [
        {
          "indexed": true,
          "internalType": "address",
          "name": "voter",
          "type": "address"
        },
        {
          "indexed": false,
          "internalType": "uint256",
          "name": "proposalId",
          "type": "uint256"
        },
        {
          "indexed": false,
          "internalType": "uint8",
          "name": "support",
          "type": "uint8"
        },
        {
          "indexed": false,
          "internalType": "uint256",
          "name": "weight",
          "type": "uint256"
        },
        {
          "indexed": false,
          "internalType": "string",
          "name": "reason",
          "type": "string"
        },
        {
          "indexed": false,
          "internalType": "bytes",
          "name": "params",
          "type": "bytes"
        }
      ],
      "name": "VoteCastWithParams",
      "type": "event"
    },
    {
      "anonymous": false,
      "inputs": [
        {
          "indexed": false,
          "internalType": "uint256",
          "name": "oldVotingDelay",
          "type": "uint256"
        },
        {
          "indexed": false,
          "internalType": "uint256",
          "name": "newVotingDelay",
          "type": "uint256"
        }
      ],
      "name": "VotingDelaySet",
      "type": "event"
    },
    {
      "anonymous": false,
      "inputs": [
        {
          "indexed": false,
          "internalType": "uint256",
          "name": "oldVotingPeriod",
          "type": "uint256"
        },
        {
          "indexed": false,
          "internalType": "uint256",
          "name": "newVotingPeriod",
          "type": "uint256"
        }
      ],
      "name": "VotingPeriodSet",
      "type": "event"
    },
    {
      "inputs": [],
      "name": "BALLOT_TYPEHASH",
      "outputs": [
        {
          "internalType": "bytes32",
          "name": "",
          "type": "bytes32"
        }
      ],
      "stateMutability": "view",
      "type": "function"
    },
    {
      "inputs": [],
      "name": "CLOCK_MODE",
      "outputs": [
        {
          "internalType": "string",
          "name": "",
          "type": "string"
        }
      ],
      "stateMutability": "view",
      "type": "function"
    },
    {
      "inputs": [],
      "name": "COUNTING_MODE",
      "outputs": [
        {
          "internalType": "string",
          "name": "",
          "type": "string"
        }
      ],
      "stateMutability": "pure",
      "type": "function"
    },
    {
      "inputs": [],
      "name": "EXTENDED_BALLOT_TYPEHASH",
      "outputs": [
        {
          "internalType": "bytes32",
          "name": "",
          "type": "bytes32"
        }
      ],
      "stateMutability": "view",
      "type": "function"
    },
    {
      "inputs": [
        {
          "internalType": "address[]",
          "name": "targets",
          "type": "address[]"
        },
        {
          "internalType": "uint256[]",
          "name": "values",
          "type": "uint256[]"
        },
        {
          "internalType": "bytes[]",
          "name": "calldatas",
          "type": "bytes[]"
        },
        {
          "internalType": "bytes32",
          "name": "descriptionHash",
          "type": "bytes32"
        }
      ],
      "name": "cancel",
      "outputs": [
        {
          "internalType": "uint256",
          "name": "",
          "type": "uint256"
        }
      ],
      "stateMutability": "nonpayable",
      "type": "function"
    },
    {
      "inputs": [
        {
          "internalType": "uint256",
          "name": "proposalId",
          "type": "uint256"
        },
        {
          "internalType": "uint8",
          "name": "support",
          "type": "uint8"
        }
      ],
      "name": "castVote",
      "outputs": [
        {
          "internalType": "uint256",
          "name": "",
          "type": "uint256"
        }
      ],
      "stateMutability": "nonpayable",
      "type": "function"
    },
    {
      "inputs": [
        {
          "internalType": "uint256",
          "name": "proposalId",
          "type": "uint256"
        },
        {
          "internalType": "uint8",
          "name": "support",
          "type": "uint8"
        },
        {
          "internalType": "uint8",
          "name": "v",
          "type": "uint8"
        },
        {
          "internalType": "bytes32",
          "name": "r",
          "type": "bytes32"
        },
        {
          "internalType": "bytes32",
          "name": "s",
          "type": "bytes32"
        }
      ],
      "name": "castVoteBySig",
      "outputs": [
        {
          "internalType": "uint256",
          "name": "",
          "type": "uint256"
        }
      ],
      "stateMutability": "nonpayable",
      "type": "function"
    },
    {
      "inputs": [
        {
          "internalType": "uint256",
          "name": "proposalId",
          "type": "uint256"
        },
        {
          "internalType": "uint8",
          "name": "support",
          "type": "uint8"
        },
        {
          "internalType": "string",
          "name": "reason",
          "type": "string"
        }
      ],
      "name": "castVoteWithReason",
      "outputs": [
        {
          "internalType": "uint256",
          "name": "",
          "type": "uint256"
        }
      ],
      "stateMutability": "nonpayable",
      "type": "function"
    },
    {
      "inputs": [
        {
          "internalType": "uint256",
          "name": "proposalId",
          "type": "uint256"
        },
        {
          "internalType": "uint8",
          "name": "support",
          "type": "uint8"
        },
        {
          "internalType": "string",
          "name": "reason",
          "type": "string"
        },
        {
          "internalType": "bytes",
          "name": "params",
          "type": "bytes"
        }
      ],
      "name": "castVoteWithReasonAndParams",
      "outputs": [
        {
          "internalType": "uint256",
          "name": "",
          "type": "uint256"
        }
      ],
      "stateMutability": "nonpayable",
      "type": "function"
    },
    {
      "inputs": [
        {
          "internalType": "uint256",
          "name": "proposalId",
          "type": "uint256"
        },
        {
          "internalType": "uint8",
          "name": "support",
          "type": "uint8"
        },
        {
          "internalType": "string",
          "name": "reason",
          "type": "string"
        },
        {
          "internalType": "bytes",
          "name": "params",
          "type": "bytes"
        },
        {
          "internalType": "uint8",
          "name": "v",
          "type": "uint8"
        },
        {
          "internalType": "bytes32",
          "name": "r",
          "type": "bytes32"
        },
        {
          "internalType": "bytes32",
          "name": "s",
          "type": "bytes32"
        }
      ],
      "name": "castVoteWithReasonAndParamsBySig",
      "outputs": [
        {
          "internalType": "uint256",
          "name": "",
          "type": "uint256"
        }
      ],
      "stateMutability": "nonpayable",
      "type": "function"
    },
    {
      "inputs": [],
      "name": "chainId",
      "outputs": [
        {
          "internalType": "uint16",
          "name": "",
          "type": "uint16"
        }
      ],
      "stateMutability": "view",
      "type": "function"
    },
    {
      "inputs": [],
      "name": "clock",
      "outputs": [
        {
          "internalType": "uint48",
          "name": "",
          "type": "uint48"
        }
      ],
      "stateMutability": "view",
      "type": "function"
    },
    {
      "inputs": [
        {
          "internalType": "uint256",
          "name": "",
          "type": "uint256"
        }
      ],
      "name": "collectionFinished",
      "outputs": [
        {
          "internalType": "bool",
          "name": "",
          "type": "bool"
        }
      ],
      "stateMutability": "view",
      "type": "function"
    },
    {
      "inputs": [
        {
          "internalType": "uint256",
          "name": "",
          "type": "uint256"
        }
      ],
      "name": "collectionStarted",
      "outputs": [
        {
          "internalType": "bool",
          "name": "",
          "type": "bool"
        }
      ],
      "stateMutability": "view",
      "type": "function"
    },
    {
      "inputs": [
        {
          "internalType": "address[]",
          "name": "targets",
          "type": "address[]"
        },
        {
          "internalType": "uint256[]",
          "name": "values",
          "type": "uint256[]"
        },
        {
          "internalType": "bytes[]",
          "name": "calldatas",
          "type": "bytes[]"
        },
        {
          "internalType": "string",
          "name": "description",
          "type": "string"
        }
      ],
      "name": "crossChainPropose",
      "outputs": [
        {
          "internalType": "uint256",
          "name": "",
          "type": "uint256"
        }
      ],
      "stateMutability": "payable",
      "type": "function"
    },
    {
      "inputs": [],
      "name": "eip712Domain",
      "outputs": [
        {
          "internalType": "bytes1",
          "name": "fields",
          "type": "bytes1"
        },
        {
          "internalType": "string",
          "name": "name",
          "type": "string"
        },
        {
          "internalType": "string",
          "name": "version",
          "type": "string"
        },
        {
          "internalType": "uint256",
          "name": "chainId",
          "type": "uint256"
        },
        {
          "internalType": "address",
          "name": "verifyingContract",
          "type": "address"
        },
        {
          "internalType": "bytes32",
          "name": "salt",
          "type": "bytes32"
        },
        {
          "internalType": "uint256[]",
          "name": "extensions",
          "type": "uint256[]"
        }
      ],
      "stateMutability": "view",
      "type": "function"
    },
    {
      "inputs": [
        {
          "internalType": "address[]",
          "name": "targets",
          "type": "address[]"
        },
        {
          "internalType": "uint256[]",
          "name": "values",
          "type": "uint256[]"
        },
        {
          "internalType": "bytes[]",
          "name": "calldatas",
          "type": "bytes[]"
        },
        {
          "internalType": "bytes32",
          "name": "descriptionHash",
          "type": "bytes32"
        }
      ],
      "name": "execute",
      "outputs": [
        {
          "internalType": "uint256",
          "name": "",
          "type": "uint256"
        }
      ],
      "stateMutability": "payable",
      "type": "function"
    },
    {
      "inputs": [
        {
          "internalType": "address",
          "name": "account",
          "type": "address"
        },
        {
          "internalType": "uint256",
          "name": "timepoint",
          "type": "uint256"
        }
      ],
      "name": "getVotes",
      "outputs": [
        {
          "internalType": "uint256",
          "name": "",
          "type": "uint256"
        }
      ],
      "stateMutability": "view",
      "type": "function"
    },
    {
      "inputs": [
        {
          "internalType": "address",
          "name": "account",
          "type": "address"
        },
        {
          "internalType": "uint256",
          "name": "timepoint",
          "type": "uint256"
        },
        {
          "internalType": "bytes",
          "name": "params",
          "type": "bytes"
        }
      ],
      "name": "getVotesWithParams",
      "outputs": [
        {
          "internalType": "uint256",
          "name": "",
          "type": "uint256"
        }
      ],
      "stateMutability": "view",
      "type": "function"
    },
    {
      "inputs": [
        {
          "internalType": "uint256",
          "name": "proposalId",
          "type": "uint256"
        },
        {
          "internalType": "address",
          "name": "account",
          "type": "address"
        }
      ],
      "name": "hasVoted",
      "outputs": [
        {
          "internalType": "bool",
          "name": "",
          "type": "bool"
        }
      ],
      "stateMutability": "view",
      "type": "function"
    },
    {
      "inputs": [
        {
          "internalType": "address[]",
          "name": "targets",
          "type": "address[]"
        },
        {
          "internalType": "uint256[]",
          "name": "values",
          "type": "uint256[]"
        },
        {
          "internalType": "bytes[]",
          "name": "calldatas",
          "type": "bytes[]"
        },
        {
          "internalType": "bytes32",
          "name": "descriptionHash",
          "type": "bytes32"
        }
      ],
      "name": "hashProposal",
      "outputs": [
        {
          "internalType": "uint256",
          "name": "",
          "type": "uint256"
        }
      ],
      "stateMutability": "pure",
      "type": "function"
    },
    {
      "inputs": [],
      "name": "magistrate",
      "outputs": [
        {
          "internalType": "address",
          "name": "",
          "type": "address"
        }
      ],
      "stateMutability": "view",
      "type": "function"
    },
    {
      "inputs": [],
      "name": "name",
      "outputs": [
        {
          "internalType": "string",
          "name": "",
          "type": "string"
        }
      ],
      "stateMutability": "view",
      "type": "function"
    },
    {
      "inputs": [
        {
          "internalType": "address",
          "name": "",
          "type": "address"
        },
        {
          "internalType": "address",
          "name": "",
          "type": "address"
        },
        {
          "internalType": "uint256[]",
          "name": "",
          "type": "uint256[]"
        },
        {
          "internalType": "uint256[]",
          "name": "",
          "type": "uint256[]"
        },
        {
          "internalType": "bytes",
          "name": "",
          "type": "bytes"
        }
      ],
      "name": "onERC1155BatchReceived",
      "outputs": [
        {
          "internalType": "bytes4",
          "name": "",
          "type": "bytes4"
        }
      ],
      "stateMutability": "nonpayable",
      "type": "function"
    },
    {
      "inputs": [
        {
          "internalType": "address",
          "name": "",
          "type": "address"
        },
        {
          "internalType": "address",
          "name": "",
          "type": "address"
        },
        {
          "internalType": "uint256",
          "name": "",
          "type": "uint256"
        },
        {
          "internalType": "uint256",
          "name": "",
          "type": "uint256"
        },
        {
          "internalType": "bytes",
          "name": "",
          "type": "bytes"
        }
      ],
      "name": "onERC1155Received",
      "outputs": [
        {
          "internalType": "bytes4",
          "name": "",
          "type": "bytes4"
        }
      ],
      "stateMutability": "nonpayable",
      "type": "function"
    },
    {
      "inputs": [
        {
          "internalType": "address",
          "name": "",
          "type": "address"
        },
        {
          "internalType": "address",
          "name": "",
          "type": "address"
        },
        {
          "internalType": "uint256",
          "name": "",
          "type": "uint256"
        },
        {
          "internalType": "bytes",
          "name": "",
          "type": "bytes"
        }
      ],
      "name": "onERC721Received",
      "outputs": [
        {
          "internalType": "bytes4",
          "name": "",
          "type": "bytes4"
        }
      ],
      "stateMutability": "nonpayable",
      "type": "function"
    },
    {
      "inputs": [],
      "name": "owner",
      "outputs": [
        {
          "internalType": "address",
          "name": "",
          "type": "address"
        }
      ],
      "stateMutability": "view",
      "type": "function"
    },
    {
      "inputs": [
        {
          "internalType": "bytes32",
          "name": "",
          "type": "bytes32"
        }
      ],
      "name": "processedMessages",
      "outputs": [
        {
          "internalType": "bool",
          "name": "",
          "type": "bool"
        }
      ],
      "stateMutability": "view",
      "type": "function"
    },
    {
      "inputs": [
        {
          "internalType": "uint256",
          "name": "proposalId",
          "type": "uint256"
        }
      ],
      "name": "proposalDeadline",
      "outputs": [
        {
          "internalType": "uint256",
          "name": "",
          "type": "uint256"
        }
      ],
      "stateMutability": "view",
      "type": "function"
    },
    {
      "inputs": [
        {
          "internalType": "uint256",
          "name": "proposalId",
          "type": "uint256"
        }
      ],
      "name": "proposalEta",
      "outputs": [
        {
          "internalType": "uint256",
          "name": "",
          "type": "uint256"
        }
      ],
      "stateMutability": "view",
      "type": "function"
    },
    {
      "inputs": [
        {
          "internalType": "uint256",
          "name": "proposalId",
          "type": "uint256"
        }
      ],
      "name": "proposalProposer",
      "outputs": [
        {
          "internalType": "address",
          "name": "",
          "type": "address"
        }
      ],
      "stateMutability": "view",
      "type": "function"
    },
    {
      "inputs": [
        {
          "internalType": "uint256",
          "name": "proposalId",
          "type": "uint256"
        }
      ],
      "name": "proposalSnapshot",
      "outputs": [
        {
          "internalType": "uint256",
          "name": "",
          "type": "uint256"
        }
      ],
      "stateMutability": "view",
      "type": "function"
    },
    {
      "inputs": [],
      "name": "proposalThreshold",
      "outputs": [
        {
          "internalType": "uint256",
          "name": "",
          "type": "uint256"
        }
      ],
      "stateMutability": "view",
      "type": "function"
    },
    {
      "inputs": [
        {
          "internalType": "uint256",
          "name": "proposalId",
          "type": "uint256"
        }
      ],
      "name": "proposalVotes",
      "outputs": [
        {
          "internalType": "uint256",
          "name": "againstVotes",
          "type": "uint256"
        },
        {
          "internalType": "uint256",
          "name": "forVotes",
          "type": "uint256"
        },
        {
          "internalType": "uint256",
          "name": "abstainVotes",
          "type": "uint256"
        }
      ],
      "stateMutability": "view",
      "type": "function"
    },
    {
      "inputs": [
        {
          "internalType": "address[]",
          "name": "",
          "type": "address[]"
        },
        {
          "internalType": "uint256[]",
          "name": "",
          "type": "uint256[]"
        },
        {
          "internalType": "bytes[]",
          "name": "",
          "type": "bytes[]"
        },
        {
          "internalType": "string",
          "name": "",
          "type": "string"
        }
      ],
      "name": "propose",
      "outputs": [
        {
          "internalType": "uint256",
          "name": "",
          "type": "uint256"
        }
      ],
      "stateMutability": "pure",
      "type": "function"
    },
    {
      "inputs": [
        {
          "internalType": "address[]",
          "name": "targets",
          "type": "address[]"
        },
        {
          "internalType": "uint256[]",
          "name": "values",
          "type": "uint256[]"
        },
        {
          "internalType": "bytes[]",
          "name": "calldatas",
          "type": "bytes[]"
        },
        {
          "internalType": "bytes32",
          "name": "descriptionHash",
          "type": "bytes32"
        }
      ],
      "name": "queue",
      "outputs": [
        {
          "internalType": "uint256",
          "name": "",
          "type": "uint256"
        }
      ],
      "stateMutability": "nonpayable",
      "type": "function"
    },
    {
      "inputs": [
        {
          "internalType": "uint256",
          "name": "blockNumber",
          "type": "uint256"
        }
      ],
      "name": "quorum",
      "outputs": [
        {
          "internalType": "uint256",
          "name": "",
          "type": "uint256"
        }
      ],
      "stateMutability": "view",
      "type": "function"
    },
    {
      "inputs": [],
      "name": "quorumDenominator",
      "outputs": [
        {
          "internalType": "uint256",
          "name": "",
          "type": "uint256"
        }
      ],
      "stateMutability": "view",
      "type": "function"
    },
    {
      "inputs": [
        {
          "internalType": "uint256",
          "name": "timepoint",
          "type": "uint256"
        }
      ],
      "name": "quorumNumerator",
      "outputs": [
        {
          "internalType": "uint256",
          "name": "",
          "type": "uint256"
        }
      ],
      "stateMutability": "view",
      "type": "function"
    },
    {
      "inputs": [],
      "name": "quorumNumerator",
      "outputs": [
        {
          "internalType": "uint256",
          "name": "",
          "type": "uint256"
        }
      ],
      "stateMutability": "view",
      "type": "function"
    },
    {
      "inputs": [
        {
          "internalType": "bytes",
          "name": "payload",
          "type": "bytes"
        },
        {
          "internalType": "bytes[]",
          "name": "additionalVaas",
          "type": "bytes[]"
        },
        {
          "internalType": "bytes32",
          "name": "sourceAddress",
          "type": "bytes32"
        },
        {
          "internalType": "uint16",
          "name": "sourceChain",
          "type": "uint16"
        },
        {
          "internalType": "bytes32",
          "name": "deliveryHash",
          "type": "bytes32"
        }
      ],
      "name": "receiveWormholeMessages",
      "outputs": [],
      "stateMutability": "payable",
      "type": "function"
    },
    {
      "inputs": [
        {
          "internalType": "address",
          "name": "target",
          "type": "address"
        },
        {
          "internalType": "uint256",
          "name": "value",
          "type": "uint256"
        },
        {
          "internalType": "bytes",
          "name": "data",
          "type": "bytes"
        }
      ],
      "name": "relay",
      "outputs": [],
      "stateMutability": "payable",
      "type": "function"
    },
    {
      "inputs": [],
      "name": "renounceOwnership",
      "outputs": [],
      "stateMutability": "nonpayable",
      "type": "function"
    },
    {
      "inputs": [
        {
          "internalType": "uint256",
          "name": "proposalId",
          "type": "uint256"
        }
      ],
      "name": "requestCollections",
      "outputs": [],
      "stateMutability": "payable",
      "type": "function"
    },
    {
      "inputs": [],
      "name": "secondsPerBlock",
      "outputs": [
        {
          "internalType": "uint256",
          "name": "",
          "type": "uint256"
        }
      ],
      "stateMutability": "view",
      "type": "function"
    },
    {
      "inputs": [
        {
          "internalType": "uint256",
          "name": "newProposalThreshold",
          "type": "uint256"
        }
      ],
      "name": "setProposalThreshold",
      "outputs": [],
      "stateMutability": "nonpayable",
      "type": "function"
    },
    {
      "inputs": [
        {
          "internalType": "uint256",
          "name": "newVotingDelay",
          "type": "uint256"
        }
      ],
      "name": "setVotingDelay",
      "outputs": [],
      "stateMutability": "nonpayable",
      "type": "function"
    },
    {
      "inputs": [
        {
          "internalType": "uint256",
          "name": "newVotingPeriod",
          "type": "uint256"
        }
      ],
      "name": "setVotingPeriod",
      "outputs": [],
      "stateMutability": "nonpayable",
      "type": "function"
    },
    {
      "inputs": [
        {
          "internalType": "uint256",
          "name": "",
          "type": "uint256"
        }
      ],
      "name": "spokeContracts",
      "outputs": [
        {
          "internalType": "bytes32",
          "name": "contractAddress",
          "type": "bytes32"
        },
        {
          "internalType": "uint16",
          "name": "chainId",
          "type": "uint16"
        }
      ],
      "stateMutability": "view",
      "type": "function"
    },
    {
      "inputs": [
        {
          "internalType": "bytes32",
          "name": "",
          "type": "bytes32"
        },
        {
          "internalType": "uint16",
          "name": "",
          "type": "uint16"
        }
      ],
      "name": "spokeContractsMapping",
      "outputs": [
        {
          "internalType": "bool",
          "name": "",
          "type": "bool"
        }
      ],
      "stateMutability": "view",
      "type": "function"
    },
    {
      "inputs": [
        {
          "internalType": "uint256",
          "name": "",
          "type": "uint256"
        },
        {
          "internalType": "bytes32",
          "name": "",
          "type": "bytes32"
        },
        {
          "internalType": "uint16",
          "name": "",
          "type": "uint16"
        }
      ],
      "name": "spokeContractsMappingSnapshots",
      "outputs": [
        {
          "internalType": "bool",
          "name": "",
          "type": "bool"
        }
      ],
      "stateMutability": "view",
      "type": "function"
    },
    {
      "inputs": [
        {
          "internalType": "uint256",
          "name": "",
          "type": "uint256"
        },
        {
          "internalType": "uint256",
          "name": "",
          "type": "uint256"
        }
      ],
      "name": "spokeContractsSnapshots",
      "outputs": [
        {
          "internalType": "bytes32",
          "name": "contractAddress",
          "type": "bytes32"
        },
        {
          "internalType": "uint16",
          "name": "chainId",
          "type": "uint16"
        }
      ],
      "stateMutability": "view",
      "type": "function"
    },
    {
      "inputs": [
        {
          "internalType": "uint256",
          "name": "",
          "type": "uint256"
        },
        {
          "internalType": "bytes32",
          "name": "",
          "type": "bytes32"
        },
        {
          "internalType": "uint16",
          "name": "",
          "type": "uint16"
        }
      ],
      "name": "spokeVotes",
      "outputs": [
        {
          "internalType": "uint256",
          "name": "forVotes",
          "type": "uint256"
        },
        {
          "internalType": "uint256",
          "name": "againstVotes",
          "type": "uint256"
        },
        {
          "internalType": "uint256",
          "name": "abstainVotes",
          "type": "uint256"
        },
        {
          "internalType": "bool",
          "name": "initialized",
          "type": "bool"
        }
      ],
      "stateMutability": "view",
      "type": "function"
    },
    {
      "inputs": [
        {
          "internalType": "uint256",
          "name": "proposalId",
          "type": "uint256"
        }
      ],
      "name": "state",
      "outputs": [
        {
          "internalType": "enum IGovernor.ProposalState",
          "name": "",
          "type": "uint8"
        }
      ],
      "stateMutability": "view",
      "type": "function"
    },
    {
      "inputs": [
        {
          "internalType": "bytes4",
          "name": "interfaceId",
          "type": "bytes4"
        }
      ],
      "name": "supportsInterface",
      "outputs": [
        {
          "internalType": "bool",
          "name": "",
          "type": "bool"
        }
      ],
      "stateMutability": "view",
      "type": "function"
    },
    {
      "inputs": [],
      "name": "timelock",
      "outputs": [
        {
          "internalType": "address",
          "name": "",
          "type": "address"
        }
      ],
      "stateMutability": "view",
      "type": "function"
    },
    {
      "inputs": [],
      "name": "token",
      "outputs": [
        {
          "internalType": "contract IERC5805",
          "name": "",
          "type": "address"
        }
      ],
      "stateMutability": "view",
      "type": "function"
    },
    {
      "inputs": [
        {
          "internalType": "address",
          "name": "newMagistrate",
          "type": "address"
        }
      ],
      "name": "transferMagistrate",
      "outputs": [],
      "stateMutability": "nonpayable",
      "type": "function"
    },
    {
      "inputs": [
        {
          "internalType": "address",
          "name": "newOwner",
          "type": "address"
        }
      ],
      "name": "transferOwnership",
      "outputs": [],
      "stateMutability": "nonpayable",
      "type": "function"
    },
    {
      "inputs": [
        {
          "internalType": "uint256",
          "name": "newQuorumNumerator",
          "type": "uint256"
        }
      ],
      "name": "updateQuorumNumerator",
      "outputs": [],
      "stateMutability": "nonpayable",
      "type": "function"
    },
    {
      "inputs": [
        {
          "components": [
            {
              "internalType": "bytes32",
              "name": "contractAddress",
              "type": "bytes32"
            },
            {
              "internalType": "uint16",
              "name": "chainId",
              "type": "uint16"
            }
          ],
          "internalType": "struct CrossChainGovernorCountingSimple.CrossChainAddress[]",
          "name": "_spokeContracts",
          "type": "tuple[]"
        }
      ],
      "name": "updateSpokeContracts",
      "outputs": [],
      "stateMutability": "nonpayable",
      "type": "function"
    },
    {
      "inputs": [
        {
          "internalType": "contract TimelockController",
          "name": "newTimelock",
          "type": "address"
        }
      ],
      "name": "updateTimelock",
      "outputs": [],
      "stateMutability": "nonpayable",
      "type": "function"
    },
    {
      "inputs": [],
      "name": "version",
      "outputs": [
        {
          "internalType": "string",
          "name": "",
          "type": "string"
        }
      ],
      "stateMutability": "view",
      "type": "function"
    },
    {
      "inputs": [],
      "name": "votingDelay",
      "outputs": [
        {
          "internalType": "uint256",
          "name": "",
          "type": "uint256"
        }
      ],
      "stateMutability": "view",
      "type": "function"
    },
    {
      "inputs": [],
      "name": "votingPeriod",
      "outputs": [
        {
          "internalType": "uint256",
          "name": "",
          "type": "uint256"
        }
      ],
      "stateMutability": "view",
      "type": "function"
    },
    {
      "inputs": [],
      "name": "withdrawFunds",
      "outputs": [],
      "stateMutability": "nonpayable",
      "type": "function"
    },
    {
      "inputs": [],
      "name": "wormholeRelayer",
      "outputs": [
        {
          "internalType": "contract IWormholeRelayer",
          "name": "",
          "type": "address"
        }
      ],
      "stateMutability": "view",
      "type": "function"
    },
    {
      "stateMutability": "payable",
      "type": "receive"
    }
  ],
  "bytecode": "0x6101e0604052346200011d576200002c620000196200029f565b999890989791979692969593956200039e565b604051615d969081620014ea823960805181614f83015260a05181615038015260c05181614f4d015260e05181614fd201526101005181614ff801526101205181611f5401526101405181611f800152610160518181816121140152818161280b01528181612a8401528181612bd801528181612e4901528181613294015281816137a6015281816147470152614efe015261018051818181611681015281816119400152818161260901528181613404015281816140490152818161439b015261443701526101a051818181611dcb01528181614e110152614e5101526101c05181818161191901526121930152f35b600080fd5b634e487b7160e01b600052604160045260246000fd5b604081019081106001600160401b038211176200015457604052565b62000122565b60c081019081106001600160401b038211176200015457604052565b601f909101601f19168101906001600160401b038211908210176200015457604052565b60405190620001a98262000138565b565b6001600160a01b038116036200011d57565b5190620001a982620001ab565b519061ffff821682036200011d57565b81601f820112156200011d5780519060206001600160401b03831162000154576040926040519462000212838360051b018762000176565b818652828087019260061b850101938185116200011d578301915b8483106200023e5750505050505090565b85838303126200011d578386918251620002588162000138565b8551815262000269838701620001ca565b838201528152019201916200022d565b519065ffffffffffff821682036200011d57565b519063ffffffff821682036200011d57565b620072a0908138038060405193620002b8828662000176565b8439820191610160818403126200011d578051620002d681620001ab565b620002e460208301620001bd565b604083015190946001600160401b0382116200011d5762000307918401620001da565b926200031660608401620001ca565b926200032560808201620001bd565b926200033460a08301620001bd565b9260c0830151926200034960e0820162000279565b926200035961010083016200028d565b92610140610120840151930151919a99989796959493929190565b60405190620003838262000138565b60118252565b60405190620003988262000138565b60018252565b98620004e092620004ba620004cb92620004b463ffffffff620004ec9b9f96989c9d620004ad620004e69b9f65ffffffffffff90620004a6620003e062000374565b602081017026b2ba30a43ab6b0b723b7bb32b93737b960791b81526200040562000389565b906020820190603160f81b82526200041d8462000eb1565b610120526200042c8362000fc0565b6101405283519020918260e05251902080610100524660a0526040519060208201927f8b73c3c69bb8fe3d512ecc4cf759cc79239f7b179b0ffacaa9a75d522b39400f8452604083015260608201524660808201523060a082015260a0815262000496816200015a565b5190206080523060c0526200064c565b1662000daa565b1662000de3565b62000e78565b620004c53362000d61565b620009ab565b6001600160a01b039889166101605262000858565b62000790565b62000747565b6101c05216610180526101a052565b90600182811c921680156200052d575b60208310146200051757565b634e487b7160e01b600052602260045260246000fd5b91607f16916200050b565b601f811162000545575050565b60009060026000526020600020906020601f850160051c8301941062000588575b601f0160051c01915b8281106200057c57505050565b8181556001016200056f565b909250829062000566565b601f8111620005a0575050565b600090600080526020600020906020601f850160051c83019410620005e2575b601f0160051c01915b828110620005d657505050565b818155600101620005c9565b9092508290620005c0565b90601f8211620005fb575050565b60019160009060016000526020600020906020601f850160051c8301941062000641575b601f0160051c01915b828110620006365750505050565b818155830162000628565b90925082906200061f565b80519091906001600160401b0381116200015457620006788162000672600254620004fb565b62000538565b602080601f8311600114620006bf57508190620006ae9394600092620006b3575b50508160011b916000199060031b1c19161790565b600255565b01519050388062000699565b6002600052601f198316949091907f405787fa12a823e0f2b7631cc41b3ba8828b3321ca811111fa75cd3aa3bb5ace926000905b8782106200072e57505083600195961062000714575b505050811b01600255565b015160001960f88460031b161c1916905538808062000709565b80600185968294968601518155019501930190620006f3565b601480546001600160a01b039283166001600160a01b0319821681179092559091167fb4aa40c4569b1278aa7da5bab0f345910781d388f8257b0bec17a317e2efb6b5600080a3565b6012547f08f74ea46ef7894f65eabfb5e6e695de773a000b47c529ab559178069b226401604060018060a01b038094169381519084168152846020820152a16001600160a01b03191617601255565b634e487b7160e01b600052603260045260246000fd5b60115490680100000000000000008210156200015457600182018060115582101562000852576011600052805160209182015190911b63ffffffff191663ffffffff91909116176000805160206200728083398151915290910155565b620007df565b6064811162000934577f0553476bf02ef2726e8ce5ced78d63e26e602e4a2257b1f559418e24b4633997906200088d620010ac565b8015158062000929575b620008ea575b620008d6620008c4620008be620008b362001152565b65ffffffffffff1690565b62001236565b620008cf84620010e8565b90620013ae565b5050604080519182526020820192909252a1565b62000923620008f982620010e8565b6200091d620009076200019a565b600081526001600160e01b039092166020830152565b620007f5565b6200089d565b506011541562000897565b60405162461bcd60e51b815260206004820152604360248201527f476f7665726e6f72566f74657351756f72756d4672616374696f6e3a2071756f60448201527f72756d4e756d657261746f72206f7665722071756f72756d44656e6f6d696e616064820152623a37b960e91b608482015260a490fd5b6009546001600160a01b0316330362000b8a57600b5460015b8181111562000b27575050620009d962000c4e565b80519060015b8281111562000a1c57505050620009f562000d0a565b7fabfe8157b42cfc40503d794ecb43abbe99d180868288128344cb1c3340635f0a600080a2565b62000a3262000a2b8262000bfa565b8362000ca6565b519062000a4a8251600052600a602052604060002090565b600162000a8862000a8362000a7c602087019462000a6a865161ffff1690565b61ffff16600052602052604060002090565b5460ff1690565b151590565b1462000ae2578262000ad062000ac362000ad69362000a6a62000aba62000adc9851600052600a602052604060002090565b915161ffff1690565b805460ff19166001179055565b62000cbb565b62000be4565b620009df565b60405162461bcd60e51b815260206004820152601a60248201527f4475706c69636174657320617265206e6f7420616c6c6f7765640000000000006044820152606490fd5b8062000ad662000b7a62000b5462000b4d62000b4762000b849662000bfa565b62000c0a565b5062000c2a565b62000a6a602062000b708351600052600a602052604060002090565b92015161ffff1690565b805460ff19169055565b620009c4565b606460405162461bcd60e51b815260206004820152602060248201527f4f776e61626c653a2063616c6c6572206973206e6f7420746865206f776e65726044820152fd5b634e487b7160e01b600052601160045260246000fd5b600019811462000bf45760010190565b62000bce565b60001981019190821162000bf457565b600b548110156200085257600b60005260206000209060011b0190600090565b9060405162000c398162000138565b602061ffff6001839580548552015416910152565b600b54600080600b558162000c61575050565b60016001600160ff1b038316830362000bf457600b60005260206000209260011b8301925b83811062000c945750505050565b80836002925583838201550162000c86565b8051821015620008525760209160051b010190565b600b546801000000000000000081101562000154576001810180600b5581101562000852576020600161ffff92600b6000528260002090821b0184518155019201511661ffff19825416179055565b6040805190818291600b54600b600052602080600020926000915b83831062000d3857505050505003902090565b8454865260018086015461ffff1687830152889750958201956002909501949092019162000d25565b600980546001600160a01b039283166001600160a01b0319821681179092559091167f8be0079c531659141344cd1fd0a4f28419497f9722a3daafe3b4186f6b6457e0600080a3565b60065460408051918252602082018390527fc565b045403dc03c2eea82b81a0465edad9e2e7fc4d97e11421c209da93d7a9391a1600655565b801562000e235760075460408051918252602082018390527f7e3f7f0708a84de9203036abaa450dccc85ad5ff52f78c170f3edb55cf5e882891a1600755565b60405162461bcd60e51b815260206004820152602760248201527f476f7665726e6f7253657474696e67733a20766f74696e6720706572696f6420604482015266746f6f206c6f7760c81b6064820152608490fd5b60085460408051918252602082018390527fccb45da8d5717e6c4544694297c4ba5cf151d455c9bb0ed4fc7a38411bc0546191a1600855565b9081516020906020811060001462000ed45750509062000ed190620012c0565b90565b6001600160401b038111620001545760009162000efd8262000ef78554620004fb565b62000593565b602090601f831160011462000f395750819083949562000f329492620006b35750508160011b916000199060031b1c19161790565b905560ff90565b60008052601f198316957f290decd9548b62a8d60345a988386fc84ba6bc95484008f6362f93160ef3e563929185905b88821062000fa75750508360019596971062000f8d575b505050811b01905560ff90565b015160001960f88460031b161c1916905538808062000f80565b8060018596829496860151815501950193019062000f69565b9081516020906020811060001462000fe05750509062000ed190620012c0565b6001600160401b03811162000154576001916200100982620010038554620004fb565b620005ed565b602090601f83116001146200103f5750819062000f32939495600092620006b35750508160011b916000199060031b1c19161790565b6001600052601f198316959091907fb10e2d527612073b26eecdfd717e6a320cf44b4afac2b0732d9fcbe2b7fa0cf6926000905b88821062001094575050838596971062000f8d57505050811b01905560ff90565b80878596829496860151815501950193019062001073565b60115480620010bc575060105490565b60001990808281011162000bf45760116000520160008051602062007280833981519152015460201c90565b6001600160e01b0390818111620010fd571690565b60405162461bcd60e51b815260206004820152602760248201527f53616665436173743a2076616c756520646f65736e27742066697420696e20326044820152663234206269747360c81b6064820152608490fd5b610160516040516324776b7d60e21b815290602090829060049082906001600160a01b03165afa60009181620011f2575b5062000ed1575065ffffffffffff8043116200119e57431690565b60405162461bcd60e51b815260206004820152602660248201527f53616665436173743a2076616c756520646f65736e27742066697420696e203460448201526538206269747360d01b6064820152608490fd5b9091506020813d6020116200122d575b81620012116020938362000176565b810103126200011d57620012259062000279565b903862001183565b3d915062001202565b63ffffffff9081811162001248571690565b60405162461bcd60e51b815260206004820152602660248201527f53616665436173743a2076616c756520646f65736e27742066697420696e203360448201526532206269747360d01b6064820152608490fd5b602081519101519060208110620012b1575090565b6000199060200360031b1b1690565b601f815111620012db57620012d5816200129c565b90511790565b6040519063305a27a960e01b82528160208060048301528251908160248401526000935b82851062001323575050604492506000838284010152601f80199101168101030190fd5b8481018201518686016044015293810193859350620012ff565b906040516200134c8162000138565b602081935463ffffffff81168352811c910152565b156200136957565b60405162461bcd60e51b815260206004820152601b60248201527f436865636b706f696e743a2064656372656173696e67206b65797300000000006044820152606490fd5b6011549192918015620014ba576200147a918185620013f6620013f0620013d760209662000bfa565b6011600052600080516020620072808339815191520190565b6200133d565b9262001406845163ffffffff1690565b6200141f63ffffffff9182841692839116111562001361565b6200143b62001432865163ffffffff1690565b63ffffffff1690565b036200147e575062001455620013d76200146c9362000bfa565b9063ffffffff82549181199060201b169116179055565b01516001600160e01b031690565b9190565b9050620014b49150620014a0620014946200019a565b63ffffffff9092168252565b6001600160e01b03871681850152620007f5565b6200146c565b50620014e390620014ce620014946200019a565b6001600160e01b0384166020820152620007f5565b6000919056fe60806040526004361015610023575b361561001957600080fd5b610021613aa5565b005b60003560e01c806301ffc9a71461045357806302a251a31461044e578063034201811461044957806306f3f9e61461044457806306fdde031461043f578063143489d01461043a578063150b7a0214610435578063160cbed71461043057806324600fc31461042b5780632656227d146104265780632d63f693146104215780632fe3e2611461041c578063327bcb421461041757806334feb318146104125780633932abb11461040d5780633bccf4fd146104085780633e4f49e61461040357806343859632146103fe578063452115d6146103f957806345e6efa1146103f45780634bf5d7e9146103ef5780634c24a564146103ea578063529dca32146103e5578063544ffc9c146103e057806354fd4d50146103db57806355f0f9c7146103d657806356781388146103d15780635f398a14146103cc57806360c4247f146103c7578063660f54c2146103c25780636ff499c3146103bd57806370b0f660146103b8578063715018a6146103b35780637a7d4937146103ae5780637b3c71d3146103a95780637d5e81e2146103a4578063835f6ac41461039f57806384b0196e1461039a57806388ba16ab146103955780638da5cb5b1461039057806391ddadf41461038b57806397c3d334146103865780639a802a6d146103815780639a8a05921461037c578063a7713a7014610377578063a890c91014610372578063ab58fb8e1461036d578063b58131b014610368578063b626afa214610363578063bc197c811461035e578063be43a6f514610359578063c01f9e3714610354578063c28bc2fa1461034f578063c59057e41461034a578063d33219b414610345578063da25b72514610340578063dd4e2ba51461033b578063deaaa7cc14610336578063ea0217cf14610331578063eb9019d41461032c578063ece40cc114610327578063f16ca84114610322578063f23a6e611461031d578063f2fde38b14610318578063f8ce560a14610313578063fbcd1c601461030e5763fc0c546a0361000e57612bc2565b612b0f565b612a54565b61299f565b612946565b6128e4565b61284f565b6127af565b6126bf565b612696565b612638565b6125f3565b6125ca565b6125ae565b6124bc565b612485565b612454565b6123c8565b61233e565b612320565b61227e565b6121d2565b6121b7565b612178565b6120a6565b61208a565b61205f565b612036565b612005565b611f3b565b611ed6565b611e43565b611dee565b611db3565b611d67565b611cd2565b611cab565b611c56565b611be2565b611b73565b611b23565b611890565b61184e565b611756565b61161e565b6115b6565b611586565b61155d565b6114a9565b61146e565b61143f565b611384565b611366565b611297565b611259565b6111b1565b61117d565b610fe6565b610efe565b610d0d565b610ad5565b610a8d565b6109c3565b6107d3565b61074b565b610528565b346105185760203660031901126105185760043563ffffffff60e01b8116809103610518576104a190636e665ced60e01b81149081156104a5575b5060405190151581529081906020820190565b0390f35b63bf26d89760e01b811491508115610507575b81156104f6575b81156104e5575b81156104d4575b503861048e565b6301ffc9a760e01b149050386104cd565b630271189760e51b811491506104c6565b63288ace0360e11b811491506104bf565b6379dd796f60e01b811491506104b8565b600080fd5b600091031261051857565b34610518576000366003190112610518576020600754604051908152f35b6024359060ff8216820361051857565b6044359060ff8216820361051857565b9181601f84011215610518578235916001600160401b038311610518576020838186019501011161051857565b634e487b7160e01b600052604160045260246000fd5b6001600160401b0381116105bc57604052565b610593565b604081019081106001600160401b038211176105bc57604052565b608081019081106001600160401b038211176105bc57604052565b602081019081106001600160401b038211176105bc57604052565b606081019081106001600160401b038211176105bc57604052565b60c081019081106001600160401b038211176105bc57604052565b601f909101601f19168101906001600160401b038211908210176105bc57604052565b60405190610678826105c1565b565b60405190610678826105dc565b6040519060e082016001600160401b038111838210176105bc57604052565b6001600160401b0381116105bc57601f01601f191660200190565b9190916106cd816106a6565b6106da6040519182610648565b8093828252821161051857818160009384602080950137010152565b929192610702826106a6565b916107106040519384610648565b829481845281830111610518578281602093846000960137010152565b9080601f8301121561051857816020610748933591016106f6565b90565b346105185760e036600319011261051857610764610546565b6001600160401b0360443581811161051857610784903690600401610566565b916064359081116105185761079d90369060040161072d565b9260843560ff81168103610518576104a1946107c39460c4359460a43594600435612c07565b6040519081529081906020820190565b3461051857602036600319011261051857601254600435906001600160a01b03166107ff338214612c90565b3003610944575b606481116108cd577f0553476bf02ef2726e8ce5ced78d63e26e602e4a2257b1f559418e24b463399790610838613319565b801515806108c3575b61088c575b61087661086761086261085761327f565b65ffffffffffff1690565b614473565b6108708461533f565b9061586c565b505061088760405192839283613d74565b0390a1005b6108be6108988261533f565b6108b96108a361066b565b600081526001600160e01b039092166020830152565b613d1e565b610846565b5060115415610841565b60405162461bcd60e51b815260206004820152604360248201527f476f7665726e6f72566f74657351756f72756d4672616374696f6e3a2071756f60448201527f72756d4e756d657261746f72206f7665722071756f72756d44656e6f6d696e616064820152623a37b960e91b608482015260a490fd5b61094e36366106c1565b602081519101205b8061095f613cad565b036109565750610806565b60005b83811061097d5750506000910152565b818101518382015260200161096d565b906020916109a68151809281855285808601910161096a565b601f01601f1916010190565b90602061074892818152019061098d565b3461051857600080600319360112610a7e57604051816002546109e581612cd7565b90818452602092600191600181169081600014610a5c5750600114610a21575b6104a185610a1581890382610648565b604051918291826109b2565b929450600283528483205b828410610a4957505050816104a193610a15928201019338610a05565b8054858501870152928501928101610a2c565b60ff191686860152505050151560051b8201019150610a15816104a138610a05565b80fd5b6001600160a01b031690565b34610518576020366003190112610518576004356000526003602052602060018060a01b0360406000205460401c16604051908152f35b6001600160a01b0381160361051857565b3461051857608036600319011261051857610af1600435610ac4565b610afc602435610ac4565b6064356001600160401b03811161051857610b1b90369060040161072d565b50604051630a85bd0160e11b8152602090f35b6001600160401b0381116105bc5760051b60200190565b9291610b5082610b2e565b91610b5e6040519384610648565b829481845260208094019160051b810192831161051857905b828210610b845750505050565b8380918335610b9281610ac4565b815201910190610b77565b9080601f830112156105185781602061074893359101610b45565b9291610bc382610b2e565b91610bd16040519384610648565b829481845260208094019160051b810192831161051857905b828210610bf75750505050565b81358152908301908301610bea565b9080601f830112156105185781602061074893359101610bb8565b92919092610c2e84610b2e565b91610c3c6040519384610648565b829480845260208094019060051b8301928284116105185780915b848310610c6657505050505050565b82356001600160401b038111610518578691610c85868493860161072d565b815201920191610c57565b9080601f830112156105185781602061074893359101610c21565b6080600319820112610518576001600160401b03916004358381116105185782610cd791600401610b9d565b926024358181116105185783610cef91600401610c06565b9260443591821161051857610d0691600401610c90565b9060643590565b3461051857610d1b36610cab565b92610d33610d2e85848685979697613702565b612d78565b6008811015610ef9576004610d489114612d11565b610d5484848484613702565b92610d726004610d6386612d78565b610d6c81611435565b14612d11565b610d85610d80601254610a81565b610a81565b60405163793d064960e11b815293906020908186600481845afa958615610ea857600096610eda575b5081604051809263b1c5f42760e01b82528180610dd18d8a8a8d60048601613d85565b03915afa918215610ea857600092610ead575b5050610def86611206565b55610dfe610d80601254610a81565b90813b156105185760008094610e2b876040519a8b97889687956308f2a0bb60e41b875260048701613dbf565b03925af1928315610ea857610e6f7f9a2e42fd6722813d69113e7d0079d3d940171428df7373df9c7f7617cfda289292610e7c926104a196610e8f575b5042612fd6565b6040519182918583613d74565b0390a16040519081529081906020820190565b80610e9c610ea2926105a9565b8061051d565b38610e68565b612dee565b610ecc9250803d10610ed3575b610ec48183610648565b810190613352565b3880610de4565b503d610eba565b610ef2919650823d8411610ed357610ec48183610648565b9438610dae565b61141f565b3461051857600080600319360112610a7e57610f18613e0d565b47804710610fa1578180808093335af1610f30613638565b5015610f395780f35b60405162461bcd60e51b815260206004820152603a60248201527f416464726573733a20756e61626c6520746f2073656e642076616c75652c20726044820152791958da5c1a595b9d081b585e481a185d99481c995d995c9d195960321b6064820152608490fd5b60405162461bcd60e51b815260206004820152601d60248201527f416464726573733a20696e73756666696369656e742062616c616e63650000006044820152606490fd5b610fef36610cab565b91610ffc83838387613702565b9361100685612d78565b6008811015610ef9578060046110259214908115611169575b50612d11565b611041600261103387611216565b01805460ff19166001179055565b6040518581527f712ae1383f79ac853f8d882153778e0260ef8f03b504e2866e0593e04d2b291f60208092a1611076866153a8565b85600052601760205260ff6040600020541615611157576012546001600160a01b031630036110b8575b6104a1866110b08787878761547b565b6107c3613e77565b9490919360005b835181101561114957600190306110e9610d806110dc84896139de565b516001600160a01b031690565b146110f5575b016110bf565b61114461110282886139de565b5189815191012060045460801d9081600f0b6000526005602052604060002055600454906001808060801b0319910160801b169060018060801b031617600455565b6110ef565b5090945092906104a16110a0565b604051631f518a7d60e01b8152600490fd5b6005915061117681611435565b143861101f565b34610518576020366003190112610518576004356000526003602052602060018060401b0360406000205416604051908152f35b34610518576000366003190112610518576020604051600080516020615d018339815191528152f35b61ffff81160361051857565b6060906003190112610518576004359060243590604435610748816111da565b6000526013602052604060002090565b6000526003602052604060002090565b600052600e602052604060002090565b600052600d602052604060002090565b9061ffff16600052602052604060002090565b3461051857602060ff61128b61126e366111e6565b91600052600c855260406000209060005284526040600020611246565b54166040519015158152f35b34610518576020366003190112610518576004356112b481610ac4565b6112bc613e0d565b6001600160a01b0390811690811561130a57601480546001600160a01b031981168417909155167fb4aa40c4569b1278aa7da5bab0f345910781d388f8257b0bec17a317e2efb6b5600080a3005b60405162461bcd60e51b815260206004820152602e60248201527f4d6167697374726174653a206e6577206d61676973747261746520697320746860448201526d65207a65726f206164647265737360901b6064820152608490fd5b34610518576000366003190112610518576020600654604051908152f35b346105185760a0366003190112610518576104a16107c36004356113a6610546565b6114096114016113b4610556565b6040516020810191600080516020615ce1833981519152835286604083015260ff86166060830152606082526113e9826105dc565b6113fc6084359360643593519020613afe565b61505e565b9190916150e0565b60405192611416846105f7565b60008452613ea7565b634e487b7160e01b600052602160045260246000fd5b60081115610ef957565b346105185760203660031901126105185761145b600435612d78565b6040516008821015610ef9576020918152f35b3461051857604036600319011261051857602060ff61128b60243561149281610ac4565b600435600052600f84526003604060002001612dd7565b34610518576114b736610cab565b906114c482828587613702565b926114ce84612d78565b6008811015610ef957611519576104a19461150b611504610d806114f461151098611216565b5460401c6001600160a01b031690565b3314613fe5565b615ad3565b6107c38161403c565b60405162461bcd60e51b815260206004820152601c60248201527b11dbdd995c9b9bdc8e881d1bdbc81b185d19481d1bc818d85b98d95b60221b6044820152606490fd5b34610518576000366003190112610518576014546040516001600160a01b039091168152602090f35b34610518576000366003190112610518576104a16115a2612e33565b60405191829160208352602083019061098d565b3461051857604036600319011261051857602060ff61128b6024356115da816111da565b600435600052600a84526040600020611246565b9181601f84011215610518578235916001600160401b038311610518576020808501948460051b01011161051857565b60a03660031901126105185760046001600160401b0381358181116105185761164a9036908401610566565b916024359081116105185761166290369085016115ee565b505060643592611671846111da565b6001600160a01b039260843592907f000000000000000000000000000000000000000000000000000000000000000085163303611745576116c66116bf856000526015602052604060002090565b5460ff1690565b61173457906116d791810190612f12565b959150503091160361172557506116fb611708916000526015602052604060002090565b805460ff19166001179055565b61ffff6020820151161561171857005b6100219160443590614267565b60405163763d29ab60e01b8152fd5b604051637b04260960e01b81528390fd5b6040516381316de160e01b81528390fd5b34610518576020806003193601126105185760043580600052600f602052604060002080549060019360018201549360028093015492600b54916001935b8361ffff861611156117b95760408051888152602081018a9052908101879052606090f35b9091939561183a899496866118316118286118409561181e896118188f61180e6117fe6117f86117f28f946117ed90612f92565b611c16565b50612fa6565b94611226565b8451600052602052604060002090565b92015161ffff1690565b90611246565b9e8f015490612fd6565b9b8d5490612fd6565b9b015490612fd6565b96612f7a565b939190979695949297611794565b34610518576000366003190112610518576104a160405161186e816105c1565b60018152603160f81b602082015260405191829160208352602083019061098d565b60208060031936011261051857600480359160016118cf6118c360016118b587611216565b01546001600160401b031690565b6001600160401b031690565b4310611b11576118ec6116bf856000526016602052604060002090565b611aff576119096116fb8594956000526016602052604060002090565b61191283611236565b549261193d7f000000000000000000000000000000000000000000000000000000000000000061436b565b947f00000000000000000000000000000000000000000000000000000000000000006001600160a01b03169060015b8661ffff8216111561197a57005b6040908689835180888482019061199a9060206040840193600181520152565b03601f199081810183526119ae9083610648565b6119b789611236565b6119c086612f92565b6119c991611c3a565b50548a6119d58b611236565b6119de88612f92565b6119e791611c3a565b50015461ffff168751938492611a01923391898601612fe3565b039081018252611a119082610648565b8189611a1c8a611236565b611a2587612f92565b611a2e91611c3a565b50015461ffff1690611a3f91614406565b9089611a4a8a611236565b611a5387612f92565b611a5c91611c3a565b50015461ffff1695611a6d8a611236565b611a7687612f92565b611a7f91611c3a565b5054611a8a90610a81565b611a9390610a81565b90516347f66e8160e11b815296879485938493611ab2938c8601613031565b0391885af1918215610ea857611acd92611ad2575b50612f7a565b61196c565b611af190883d8a11611af8575b611ae98183610648565b810190613012565b5038611ac7565b503d611adf565b604051630e48ab7960e21b8152600490fd5b60405163e9d8ca6f60e01b8152600490fd5b34610518576040366003190112610518576020611b6b611b41610546565b604051611b4d816105f7565b6000815260405191611b5e836105f7565b6000835233600435613b84565b604051908152f35b3461051857608036600319011261051857611b8c610546565b6001600160401b039060443582811161051857611bad903690600401610566565b909160643593841161051857611bd8611b6b93611bd0602096369060040161072d565b9336916106f6565b9033600435613b84565b34610518576020366003190112610518576020611b6b6004356130af565b634e487b7160e01b600052603260045260246000fd5b600b54811015611c3557600b60005260206000209060011b0190600090565b611c00565b8054821015611c355760005260206000209060011b0190600090565b3461051857604036600319011261051857602435600435600052600d602052604060002090815481101561051857611c8d91611c3a565b5080546001909101546040805192835261ffff909116602083015290f35b3461051857602036600319011261051857600435600b5481101561051857611c8d90611c16565b3461051857602036600319011261051857601254600435906001600160a01b0316611cfe338214612c90565b3003611d41575b7fc565b045403dc03c2eea82b81a0465edad9e2e7fc4d97e11421c209da93d7a9381600654611d3960405192839283613d74565b0390a1600655005b611d4b36366106c1565b602081519101205b80611d5c613cad565b03611d535750611d05565b3461051857600080600319360112610a7e57611d816144d8565b600980546001600160a01b0319811690915581906001600160a01b0316600080516020615d418339815191528280a380f35b346105185760003660031901126105185760206040517f00000000000000000000000000000000000000000000000000000000000000008152f35b3461051857606036600319011261051857611e07610546565b6044356001600160401b03811161051857602091611e36611e2f611b6b933690600401610566565b36916106f6565b60405191611b5e836105f7565b34610518576080366003190112610518576001600160401b0360043581811161051857611e74903690600401610b9d565b5060243581811161051857611e8d903690600401610c06565b5060443581811161051857611ea6903690600401610c90565b50606435908111610518573660238201121561051857611ed09036906024816004013591016106f6565b5061322c565b34610518576020366003190112610518576004356000526016602052602060ff604060002054166040519015158152f35b90815180825260208080930193019160005b828110611f27575050505090565b835185529381019392810192600101611f19565b3461051857600036600319011261051857611fd6611f787f0000000000000000000000000000000000000000000000000000000000000000614530565b6104a1611fa47f000000000000000000000000000000000000000000000000000000000000000061460a565b611fe460405191611fb4836105f7565b60008352604051958695600f60f81b875260e0602088015260e087019061098d565b90858203604087015261098d565b90466060850152306080850152600060a085015283820360c0850152611f07565b34610518576020366003190112610518576004356000526015602052602060ff604060002054166040519015158152f35b34610518576000366003190112610518576009546040516001600160a01b039091168152602090f35b3461051857600036600319011261051857602061207a61327f565b65ffffffffffff60405191168152f35b3461051857600036600319011261051857602060405160648152f35b34610518576060366003190112610518576004356120c381610ac4565b6044356001600160401b038111610518576044916120e7602092369060040161072d565b50604051630748d63560e31b81526001600160a01b039182166004820152602480359082015292839182907f0000000000000000000000000000000000000000000000000000000000000000165afa8015610ea8576104a191600091612159575b506040519081529081906020820190565b612172915060203d602011610ed357610ec48183610648565b38612148565b3461051857600036600319011261051857602060405161ffff7f0000000000000000000000000000000000000000000000000000000000000000168152f35b34610518576000366003190112610518576020611b6b613319565b34610518576020366003190112610518576004356121ef81610ac4565b6012546001600160a01b0391908216612209338214612c90565b3003612258575b7f08f74ea46ef7894f65eabfb5e6e695de773a000b47c529ab559178069b22640160408360125493169381519084168152846020820152a16001600160a01b03191617601255005b61226236366106c1565b602081519101205b80612273613cad565b0361226a5750612210565b34610518576020366003190112610518576012546122cf906020906001600160a01b03166122ad600435611206565b5490604051808095819463d45c443560e01b8352600483019190602083019252565b03915afa908115610ea857600091612301575b50600181036122f8575060405160008152602090f35b6104a1906107c3565b61231a915060203d602011610ed357610ec48183610648565b386122e2565b34610518576000366003190112610518576020600854604051908152f35b6080366003190112610518576001600160401b036004358181116105185761236a9036906004016115ee565b602492919235828111610518576123859036906004016115ee565b604494919435848111610518576123a09036906004016115ee565b91606435958611610518576104a1966123c06107c3973690600401610566565b969095613361565b346105185760a0366003190112610518576123e4600435610ac4565b6123ef602435610ac4565b6001600160401b036044358181116105185761240f903690600401610c06565b5060643581811161051857612428903690600401610c06565b506084359081116105185761244190369060040161072d565b5060405163bc197c8160e01b8152602090f35b34610518576020366003190112610518576004356000526017602052602060ff604060002054166040519015158152f35b34610518576020366003190112610518576004356000526003602052602060018060401b0360016040600020015416604051908152f35b6060366003190112610518576004356124d481610ac4565b6044356001600160401b038111610518576124f3903690600401610566565b6012549091906001600160a01b031661250d338214612c90565b3003612588575b60008383829361002195604051928392833781018481520391602435905af161253b613638565b6040519161254883610612565b602883527f476f7665726e6f723a2072656c617920726576657274656420776974686f7574602084015267206d65737361676560c01b6040840152614e82565b61259236366106c1565b602081519101205b806125a3613cad565b0361259a5750612514565b34610518576020611b6b6125c136610cab565b92919091613702565b34610518576000366003190112610518576012546040516001600160a01b039091168152602090f35b34610518576000366003190112610518576040517f00000000000000000000000000000000000000000000000000000000000000006001600160a01b03168152602090f35b34610518576000366003190112610518576104a1604051612658816105c1565b602081527f737570706f72743d627261766f2671756f72756d3d666f722c6162737461696e602082015260405191829160208352602083019061098d565b34610518576000366003190112610518576020604051600080516020615ce18339815191528152f35b3461051857602036600319011261051857601254600435906001600160a01b03166126eb338214612c90565b3003612789575b8015612734577f7e3f7f0708a84de9203036abaa450dccc85ad5ff52f78c170f3edb55cf5e88288160075461272c60405192839283613d74565b0390a1600755005b60405162461bcd60e51b815260206004820152602760248201527f476f7665726e6f7253657474696e67733a20766f74696e6720706572696f6420604482015266746f6f206c6f7760c81b6064820152608490fd5b61279336366106c1565b602081519101205b806127a4613cad565b0361279b57506126f2565b3461051857604036600319011261051857604460206004356127d081610ac4565b60006040516127de816105f7565b52604051630748d63560e31b81526001600160a01b039182166004820152602480359082015292839182907f0000000000000000000000000000000000000000000000000000000000000000165afa8015610ea8576104a19160009161215957506040519081529081906020820190565b3461051857602036600319011261051857601254600435906001600160a01b031661287b338214612c90565b30036128be575b7fccb45da8d5717e6c4544694297c4ba5cf151d455c9bb0ed4fc7a38411bc05461816008546128b660405192839283613d74565b0390a1600855005b6128c836366106c1565b602081519101205b806128d9613cad565b036128d05750612882565b346105185760806129166128f7366111e6565b91600052600e6020526040600020906000526020526040600020611246565b80549060018101549060ff6003600283015492015416916040519384526020840152604083015215156060820152f35b346105185760a036600319011261051857612962600435610ac4565b61296d602435610ac4565b6084356001600160401b0381116105185761298c90369060040161072d565b5060405163f23a6e6160e01b8152602090f35b34610518576020366003190112610518576004356129bc81610ac4565b6129c46144d8565b6001600160a01b03908116908115612a0057600980546001600160a01b03198116841790915516600080516020615d41833981519152600080a3005b60405162461bcd60e51b815260206004820152602660248201527f4f776e61626c653a206e6577206f776e657220697320746865207a65726f206160448201526564647265737360d01b6064820152608490fd5b3461051857602036600319011261051857604051632394e7a360e21b8152600480359082018190526020826024817f00000000000000000000000000000000000000000000000000000000000000006001600160a01b03165afa918215610ea8576104a192606492612ad892600092612aea575b50612ad2906130af565b90613977565b04604051918291829190602083019252565b612ad2919250612b089060203d602011610ed357610ec48183610648565b9190612ac8565b346105185760208060031936011261051857600435906001600160401b038211610518573660238301121561051857816004013591612b4d83610b2e565b91604093612b5e6040519485610648565b8084526024602085019160061b8401019236841161051857602401905b838210612b8b57610021856137f3565b8582360312610518578286918251612ba2816105c1565b8435815282850135612bb3816111da565b83820152815201910190612b7b565b34610518576000366003190112610518576040517f00000000000000000000000000000000000000000000000000000000000000006001600160a01b03168152602090f35b9492612c8261074898612c8a94939698611e2f966113fc8a8a8d612c2c368a8c6106f6565b6020815191012090602081519101209060ff604051936020850195600080516020615d0183398151915287526040860152166060840152608083015260a082015260a08152612c7a8161062d565b519020613afe565b9490946150e0565b92613b84565b15612c9757565b60405162461bcd60e51b8152602060048201526018602482015277476f7665726e6f723a206f6e6c79476f7665726e616e636560401b6044820152606490fd5b90600182811c92168015612d07575b6020831014612cf157565b634e487b7160e01b600052602260045260246000fd5b91607f1691612ce6565b15612d1857565b60405162461bcd60e51b815260206004820152602160248201527f476f7665726e6f723a2070726f706f73616c206e6f74207375636365737366756044820152601b60fa1b6064820152608490fd5b9060ff801983541691151516179055565b612d8181613edb565b906008821015610ef95760048214908115612dcc575b81612dab575b50612da55790565b50600090565b60ff9150612dc3906000526017602052604060002090565b54161538612d9d565b600383149150612d97565b9060018060a01b0316600052602052604060002090565b6040513d6000823e3d90fd5b60405190612e07826105c1565b601d82527f6d6f64653d626c6f636b6e756d6265722666726f6d3d64656661756c740000006020830152565b604051634bf5d7e960e01b8152600080826004817f00000000000000000000000000000000000000000000000000000000000000006001600160a01b03165afa90918282612e8b575b50506107485750610748612dfa565b909192503d8082843e612e9e8184610648565b820191602081840312612f0a578051906001600160401b038211612f0e570182601f82011215612f0a57805191612ed4836106a6565b93612ee26040519586610648565b83855260208484010111610a7e575090612f02916020808501910161096a565b903880612e7c565b5080fd5b8280fd5b90608082820312610518578135612f2881610ac4565b926020830135612f37816111da565b926040810135612f4681610ac4565b9260608201356001600160401b03811161051857610748920161072d565b634e487b7160e01b600052601160045260246000fd5b61ffff809116908114612f8d5760010190565b612f64565b61ffff9081166000190191908211612f8d57565b90604051612fb3816105c1565b602061ffff6001839580548552015416910152565b9060018201809211612f8d57565b91908201809211612f8d57565b909261ffff6080936107489695845216602083015260018060a01b03166040820152816060820152019061098d565b9081602091031261051857516001600160401b03811681036105185790565b906207a1209360809361ffff6130659398979816845260018060a01b0316602084015260a0604084015260a083019061098d565b9460608201520152565b600019810191908211612f8d57565b602719810191908211612f8d57565b9060405161309a816105c1565b602081935463ffffffff81168352811c910152565b6011805490811561322357600019828101838111612f8d57831115611c3557600093601185526130e76020928560208820010161308d565b9063ffffffff918183825116111561320c575061310390614473565b9281869580600581116131bb575b509593941691905b858410613171575050505050801560001461313c57505b6001600160e01b031690565b61316c915061314d6131659161306f565b6011600052600080516020615d218339815191520190565b5460201c90565b613130565b90919293948085169080861860011c8201809211612f8d57828852848483898b20015416116000146131a95750945b93929190613119565b9594506131b590612fc8565b936131a0565b91506131c6826155b6565b8203918211612f8d5760118852600080516020615d21833981519152820154841686851610156131fa575082905b38613111565b95506132068391612fc8565b956131f4565b602001516001600160e01b03169695505050505050565b50505060105490565b60405162461bcd60e51b815260206004820152602560248201527f506c65617365207573652063726f7373436861696e50726f706f736520696e736044820152643a32b0b21760d91b6064820152608490fd5b6040516324776b7d60e21b81526020816004817f00000000000000000000000000000000000000000000000000000000000000006001600160a01b03165afa80916000916132d8575b50906107485750610748436146af565b6020813d602011613311575b816132f160209383610648565b81010312612f0a57519065ffffffffffff82168203610a7e5750386132c8565b3d91506132e4565b60115480613328575060105490565b600019908082810111612f8d57601160005201600080516020615d21833981519152015460201c90565b90816020910312610518575190565b9361338f61339794979361338761339d9a9897611bd095613380613e0d565b3691610b45565b983691610bb8565b943691610c21565b92614b21565b6133a681614d7d565b6133ca6133c56118c36133b884611216565b546001600160401b031690565b614df9565b6001906133e16133c56118c360016118b587611216565b906133eb84611236565b546133f7575b50505090565b61340084611236565b54927f00000000000000000000000000000000000000000000000000000000000000006001600160a01b031660015b8561ffff82161115613443575050506133f1565b604090815160208181928b8a8a428685019361347c949094939260809260a0830196600084526020840152604083015260608201520152565b03601f199081810183526134909083610648565b8b8861349b82611236565b6134a488612f92565b6134ad91611c3a565b5054916134b990611236565b6134c288612f92565b6134cb91611c3a565b50015461ffff1687519384926134e59230918886016135d3565b0390810182526134f59082610648565b866134ff8c611236565b61350886612f92565b61351191611c3a565b50015461ffff166135219061436b565b8761352b8d611236565b61353487612f92565b61353d91611c3a565b50015461ffff169561354e8d611236565b61355787612f92565b61356091611c3a565b505461356b90610a81565b61357490610a81565b90518097819482936347f66e8160e11b84526004840192613594936135fa565b0391885af1928315610ea8576135b0936135b5575b5050612f7a565b61342f565b816135cb92903d10611af857611ae98183610648565b5038806135a9565b909261ffff608093610748969584521660208301526040820152816060820152019061098d565b939261362c906207a1209361ffff60809416875260018060a01b0316602087015260a0604087015260a086019061098d565b93600060608201520152565b3d15613663573d90613649826106a6565b916136576040519384610648565b82523d6000602084013e565b606090565b90815180825260208080930193019160005b828110613688575050505090565b83516001600160a01b03168552938101939281019260010161367a565b90808251908181526020809101926020808460051b8301019501936000915b8483106136d45750505050505090565b90919293949584806136f2600193601f198682030187528a5161098d565b98019301930191949392906136c4565b929061374e926137609260405194859261373e61372b602086019960808b5260a0870190613668565b601f199687878303016040880152611f07565b90858583030160608601526136a5565b90608083015203908101835282610648565b51902090565b6020906000604051613777816105f7565b52604051630748d63560e31b81526001600160a01b0391821660048201526024810193909352829060449082907f0000000000000000000000000000000000000000000000000000000000000000165afa908115610ea8576000916137da575090565b610748915060203d602011610ed357610ec48183610648565b6137fb6144d8565b600b5460015b8181111561392657505061381361398a565b80519060015b828111156138535750505061382c613a50565b7fabfe8157b42cfc40503d794ecb43abbe99d180868288128344cb1c3340635f0a600080a2565b61386561385f8261306f565b836139de565b519061387c8251600052600a602052604060002090565b600161389d6138986116bf6020870194611818865161ffff1690565b151590565b146138e057826138d16116fb6138d6936118186138c86138db9851600052600a602052604060002090565b915161ffff1690565b6139f2565b613968565b613819565b60405162461bcd60e51b815260206004820152601a602482015279111d5c1b1a58d85d195cc8185c99481b9bdd08185b1b1bddd95960321b6044820152606490fd5b0390fd5b806138d661395961393f6117f26117ed6139639661306f565b611818602061180e8351600052600a602052604060002090565b805460ff19169055565b613801565b6000198114612f8d5760010190565b81810292918115918404141715612f8d57565b600b54600080600b558161399c575050565b60016001600160ff1b0383168303612f8d57600b60005260206000209260011b8301925b8381106139cd5750505050565b8083600292558383820155016139c0565b8051821015611c355760209160051b010190565b600b54600160401b8110156105bc57806001613a119201600b55611c16565b613a3a57600161ffff6020846106789551855501511691019061ffff1661ffff19825416179055565b634e487b7160e01b600052600060045260246000fd5b6040805190818291600b54600b600052602080600020926000915b838310613a7d57505050505003902090565b8454865260018086015461ffff16878301528897509582019560029095019490920191613a6b565b6012546001600160a01b03163003613ab957565b60405162461bcd60e51b815260206004820152601f60248201527f476f7665726e6f723a206d7573742073656e6420746f206578656375746f72006044820152606490fd5b604290613b09614f4a565b906040519161190160f01b8352600283015260228201522090565b93909260ff613b509361074897958752166020860152604085015260a0606085015260a084019061098d565b91608081840391015261098d565b909260ff608093610748969584521660208301526040820152816060820152019061098d565b92919083600052600360205260406000206001613ba086612d78565b613ba981611435565b03613c5c5754613bcb90613bc5906001600160401b03166118c3565b82614716565b94613bd886848488615257565b8051613c205750613c1a7fb8e138887d0aa13bab447e82de9d5c1777041ecd21ca36ba824ff1e6c07ddda4938660405194859460018060a01b03169785613b5e565b0390a290565b613c1a907fe2babfbac5889a709b63bb7f598b324e08bc5a4fb9ec647fb3cbc9ec07eb8712948760405195869560018060a01b03169886613b24565b60405162461bcd60e51b815260206004820152602360248201527f476f7665726e6f723a20766f7465206e6f742063757272656e746c792061637460448201526269766560e81b6064820152608490fd5b6004549081600f0b809260801d600f0b1315613cf5578160005260056020526040600020916000835493556001808060801b031960045416910160018060801b031617600455565b604051631ed9509560e11b8152600490fd5b9063ffffffff82549181199060201b169116179055565b60115490600160401b8210156105bc576001820180601155821015611c35576106789160116000526020600020019063ffffffff81511663ffffffff19835416178255602060018060e01b039101511690613d07565b908152602081019190915260400190565b949392613db1608093613da361362c9460a08a5260a08a0190613668565b9088820360208a0152611f07565b9086820360408801526136a5565b9192613dee60a094613de0613dfc949998979960c0875260c0870190613668565b908582036020870152611f07565b9083820360408501526136a5565b946000606083015260808201520152565b6014546001600160a01b03163303613e2157565b60405162461bcd60e51b815260206004820152602860248201527f4d6167697374726174653a2063616c6c6572206973206e6f7420746865206d61604482015267676973747261746560c01b6064820152608490fd5b6012546001600160a01b03163003613e8b57565b60045480600f0b9060801d600f0b13613ea057565b6000600455565b91610748939160405193613eba856105f7565b60008552613b84565b90816020910312610518575180151581036105185790565b613ee4816154cf565b90613eee82611435565b60048203613fe157613eff90611206565b5480613f09575090565b9050613f19610d80601254610a81565b604051632ab0f52960e01b81526004810183905260209291908381602481855afa908115610ea857600091613fc4575b5015613f5757505050600790565b604051632c258a9f60e11b815260048101929092528290829060249082905afa918215610ea857600092613f97575b505015613f9257600590565b600290565b613fb69250803d10613fbd575b613fae8183610648565b810190613ec3565b3880613f86565b503d613fa4565b613fdb9150843d8611613fbd57613fae8183610648565b38613f49565b5090565b15613fec57565b60405162461bcd60e51b815260206004820152602260248201527f476f7665726e6f723a206f6e6c792070726f706f7365722063616e2063616e63604482015261195b60f21b6064820152608490fd5b61404581611236565b54907f00000000000000000000000000000000000000000000000000000000000000006001600160a01b031660005b8361ffff8216106140855750505050565b614180906040805160209181806140ab8986809601919060206040840193600281520152565b03916140bf601f1993848101845283610648565b6141156140d4876140cf8c611236565b611c3a565b5054936140e4886140cf8d611236565b50936141096140f960018097015461ffff1690565b91855197889330918b86016135d3565b03908101855284610648565b88614164610d8061415d896140cf6141576141496141448a61413a866140cf8c611236565b50015461ffff1690565b61436b565b9861413a846140cf8a611236565b95611236565b5054610a81565b91516347f66e8160e11b815297889485938493600485016135fa565b0391885af1928315610ea85761419b936135b5575050612f7a565b614074565b908160a09103126105185780516141b6816111da565b916020820151916040810151916080606083015192015190565b156141d757565b60405162461bcd60e51b815260206004820152603760248201527f4f6e6c79206d657373616765732066726f6d207468652073706f6b6520636f6e6044820152767472616374732063616e2062652072656365697665642160481b6064820152608490fd5b6003606061067893805184556020810151600185015560408101516002850155015115159101612d67565b9161427b90602080825183010191016141a0565b9192949350946142bb6142b76116bf836142b2886142a38b600052600c602052604060002090565b90600052602052604060002090565b611246565b1590565b614359576142e66142e16116bf836142b2886142a38b600052600c602052604060002090565b6141d0565b61430460036142fc836142b2886142a38b611226565b015460ff1690565b1561431b57604051639f69a0f560e01b8152600490fd5b6142b26143549461434f936106789861433261067a565b96875260208701526040860152600160608601526142a387611226565b61423c565b6153a8565b604051630aa3566560e11b8152600490fd5b6040805163c23ee3c360e01b815261ffff929092166004830152600060248301526207a1206044830152816064817f00000000000000000000000000000000000000000000000000000000000000006001600160a01b03165afa908115610ea8576000916143d7575090565b90506040813d6040116143fe575b816143f260409383610648565b81010312610518575190565b3d91506143e5565b6040805163c23ee3c360e01b815261ffff909216600483015260248201929092526207a120604482015290816064817f00000000000000000000000000000000000000000000000000000000000000006001600160a01b03165afa908115610ea8576000916143d7575090565b63ffffffff90818111614484571690565b60405162461bcd60e51b815260206004820152602660248201527f53616665436173743a2076616c756520646f65736e27742066697420696e203360448201526532206269747360d01b6064820152608490fd5b6009546001600160a01b031633036144ec57565b606460405162461bcd60e51b815260206004820152602060248201527f4f776e61626c653a2063616c6c6572206973206e6f7420746865206f776e65726044820152fd5b60ff811461456e5760ff811690601f821161455c5760405191614552836105c1565b8252602082015290565b604051632cd44ac360e21b8152600490fd5b506040516000816000549161458283612cd7565b8083526020936001908181169081156145ea57506001146145ac575b505061074892500382610648565b600080805285812095935091905b8183106145d25750506107489350820101388061459e565b855487840185015294850194869450918301916145ba565b91505061074894925060ff191682840152151560051b820101388061459e565b60ff811461462c5760ff811690601f821161455c5760405191614552836105c1565b506040516000816001916001549261464384612cd7565b908184526020946001811690816000146145ea575060011461466d57505061074892500382610648565b90939150600160005281600020936000915b8183106146975750506107489350820101388061459e565b8554878401850152948501948694509183019161467f565b65ffffffffffff908181116146c2571690565b60405162461bcd60e51b815260206004820152602660248201527f53616665436173743a2076616c756520646f65736e27742066697420696e203460448201526538206269747360d01b6064820152608490fd5b604051630748d63560e31b81526001600160a01b0391821660048201526024810192909252602090829060449082907f0000000000000000000000000000000000000000000000000000000000000000165afa908115610ea8576000916137da575090565b1561478257565b60405162461bcd60e51b815260206004820152601d60248201527f476f7665726e6f723a2070726f706f73657220726573747269637465640000006044820152606490fd5b156147ce57565b60405162461bcd60e51b815260206004820152603160248201527f476f7665726e6f723a2070726f706f73657220766f7465732062656c6f7720706044820152701c9bdc1bdcd85b081d1a1c995cda1bdb19607a1b6064820152608490fd5b1561483457565b60405162461bcd60e51b815260206004820152602160248201527f476f7665726e6f723a20696e76616c69642070726f706f73616c206c656e67746044820152600d60fb1b6064820152608490fd5b1561488a57565b60405162461bcd60e51b815260206004820152601860248201527711dbdd995c9b9bdc8e88195b5c1d1e481c1c9bdc1bdcd85b60421b6044820152606490fd5b156148d157565b60405162461bcd60e51b815260206004820152602160248201527f476f7665726e6f723a2070726f706f73616c20616c72656164792065786973746044820152607360f81b6064820152608490fd5b80546001600160401b0319166001600160401b03909216919091179055565b906149f260c060026106789460018060401b0361495f8187511683614920565b60208601518254604080890151919093169190921b600160401b600160e01b0316176001600160e01b03199190911617815560608501516149d39060018301906149b2906001600160401b031682614920565b608087015181546001600160401b03166001600160401b0319909116179055565b01926149eb6149e560a0830151151590565b85612d67565b0151151590565b815461ff00191690151560081b61ff0016179055565b90614a1282610b2e565b614a1f6040519182610648565b8281528092614a30601f1991610b2e565b019060005b828110614a4157505050565b806060602080938501015201614a35565b9592614a8690614a94939b9a989996959261012090895260209c60018060a01b03168d8a01528060408a0152880190613668565b908682036060880152611f07565b9784890360808601528251808a52818a019180808360051b8d01019501926000905b838210614af357505050505061074896975090614ada9184820360a08601526136a5565b9360c083015260e082015261010081840391015261098d565b90919293958380614b128f93600194601f199082030186528a5161098d565b98019201920190939291614ab6565b614c7e7f7d84a6263ae0d98d3329bd7b46bb4e8d6f98cd35a7adb45c274c8b7fd5ebd5e09394614b59614b548233615701565b61477b565b614b6461085761327f565b95614b84614b7a614b748961306f565b33613766565b60085411156147c7565b614be7614b9983516020850120838888613702565b97614ba7865188511461482d565b614bb4865184511461482d565b614bc086511515614883565b614bde6001600160401b03614bd76133b88c611216565b16156148ca565b60065490612fd6565b614bf360075482612fd6565b91614c66614c00836157ba565b614c43614c0c866157ba565b614c26614c17610687565b6001600160401b039094168452565b336020840152600060408401526001600160401b03166060830152565b60006080820152600060a0820152600060c0820152614c618b611216565b61493f565b614c708651614a08565b604051978897338c8a614a52565b0390a190565b600b8114614d7a57600b5490600160401b82116105bc578054828255808310614d26575b50600090815260208120907f0175b7a638427703f0dbe7bb9bbf987a2551717b34e79f33b5b1008d1fa01db95b838210614ce25750505050565b806001918403614cfd575b6002809101930191019091614cd5565b80548455614d218261ffff81840154169086019061ffff1661ffff19825416179055565b614ced565b60016001600160ff1b038281168303612f8d5784168403612f8d576000908360005260206000209260011b8301928560011b015b838110614d6957505050614ca8565b808360029255838382015501614d5a565b50565b600b546001805b82811115614da057505050614d9b61067891611236565b614c84565b600019810190808211612f8d57614de5614dbf6117f2614df494611c16565b61ffff6000888152602090600c8252604090818120855182528352209201511690611246565b805460ff191684179055613968565b614d84565b43811115614e4257438103908111612f8d57614e36907f000000000000000000000000000000000000000000000000000000000000000090613977565b4201804211612f8d5790565b4303438111612f8d57614e76907f000000000000000000000000000000000000000000000000000000000000000090613977565b4203428111612f8d5790565b90919015614e8e575090565b815115614e9e5750805190602001fd5b60405162461bcd60e51b81526020600482015290819061392290602483019061098d565b8115614ecc570490565b634e487b7160e01b600052601260045260246000fd5b604051632394e7a360e21b8152600481018290526020816024817f00000000000000000000000000000000000000000000000000000000000000006001600160a01b03165afa8015610ea857606492614f4692600092612aea5750612ad2906130af565b0490565b307f00000000000000000000000000000000000000000000000000000000000000006001600160a01b03161480615035575b15614fa5577f000000000000000000000000000000000000000000000000000000000000000090565b60405160208101907f8b73c3c69bb8fe3d512ecc4cf759cc79239f7b179b0ffacaa9a75d522b39400f82527f000000000000000000000000000000000000000000000000000000000000000060408201527f000000000000000000000000000000000000000000000000000000000000000060608201524660808201523060a082015260a081526137608161062d565b507f00000000000000000000000000000000000000000000000000000000000000004614614f7c565b9291906fa2a8918ca85bafe22016d0b997e4df60600160ff1b0383116150ca5791608094939160ff602094604051948552168484015260408301526060820152600093849182805260015afa15610ea85781516001600160a01b038116156150c4579190565b50600190565b50505050600090600390565b60051115610ef957565b6150e9816150d6565b806150f15750565b6150fa816150d6565b600181036151425760405162461bcd60e51b815260206004820152601860248201527745434453413a20696e76616c6964207369676e617475726560401b6044820152606490fd5b61514b816150d6565b600281036151985760405162461bcd60e51b815260206004820152601f60248201527f45434453413a20696e76616c6964207369676e6174757265206c656e677468006044820152606490fd5b806151a46003926150d6565b146151ab57565b60405162461bcd60e51b815260206004820152602260248201527f45434453413a20696e76616c6964207369676e6174757265202773272076616c604482015261756560f01b6064820152608490fd5b1561520257565b60405162461bcd60e51b815260206004820152602760248201527f476f7665726e6f72566f74696e6753696d706c653a20766f746520616c726561604482015266191e4818d85cdd60ca1b6064820152608490fd5b916152976116fb61527560ff9495600052600f602052604060002090565b946003860161529261528d6142b76116bf8585612dd7565b6151fb565b612dd7565b16806152ae5750906152aa908254612fd6565b9055565b600181036152c6575060016152aa9101918254612fd6565b6002036152dc5760026152aa9101918254612fd6565b60405162461bcd60e51b815260206004820152603560248201527f476f7665726e6f72566f74696e6753696d706c653a20696e76616c69642076616044820152746c756520666f7220656e756d20566f74655479706560581b6064820152608490fd5b6001600160e01b0390818111615353571690565b60405162461bcd60e51b815260206004820152602760248201527f53616665436173743a2076616c756520646f65736e27742066697420696e20326044820152663234206269747360c81b6064820152608490fd5b600160009180600052602092600d6020526040806000205491845b61ffff84818816111580615474575b156154505790856153eb92826153f1575b505095612f7a565b946153c3565b60ff92508161544691615405600394611226565b6154218c61541b61541586611236565b91612f92565b90611c3a565b505488528c52600161543c8c61541b6154158c8c2096611236565b5001541690611246565b01541685386153e3565b509450505050610678925061546f906000526017602052604060002090565b612d67565b50816153d2565b919060018060a01b036012541690813b15610518576000936154b36040519687958694859463e38335e560e01b865260048601613d85565b039134905af18015610ea8576154c65750565b610678906105a9565b60026154da82611216565b015460ff81166155af5760081c60ff166155a9576154fd6118c36133b883611216565b80156155645761550e61085761327f565b8091101561555d576155276118c360016118b585611216565b10156150c45761553681615960565b908161554d575b501561554857600490565b600390565b6155579150615a22565b3861553d565b5050600090565b60405162461bcd60e51b815260206004820152601d60248201527f476f7665726e6f723a20756e6b6e6f776e2070726f706f73616c2069640000006044820152606490fd5b50600290565b5050600790565b8015612da5578061568961568261567861566e61566461565a61565061564660016107489a6000908b60801c806156e4575b508060401c806156d7575b508060201c806156ca575b508060101c806156bd575b508060081c806156b0575b508060041c806156a3575b508060021c80615696575b50821c61568f575b811c1b61563f818b614ec2565b0160011c90565b61563f818a614ec2565b61563f8189614ec2565b61563f8188614ec2565b61563f8187614ec2565b61563f8186614ec2565b61563f8185614ec2565b8092614ec2565b90615c04565b8101615632565b600291509101903861562a565b600491509101903861561f565b6008915091019038615614565b6010915091019038615609565b60209150910190386155fe565b60409150910190386155f3565b915050608090386155e8565b908151811015611c35570160200190565b8151603481106157b25760131981840101516001600160a01b0319166b1b91f1b211f2119351b859f160a31b016157b2579160009261573f8161307e565b915b81831061575c575050506001600160a01b0391821691161490565b90919361578261577d61576f87856156f0565b516001600160f81b03191690565b615c16565b9190156157a75760041b6010600160a01b031660ff9190911617936001019190615741565b505050505050600190565b505050600190565b6001600160401b03908181116157ce571690565b60405162461bcd60e51b815260206004820152602660248201527f53616665436173743a2076616c756520646f65736e27742066697420696e203660448201526534206269747360d01b6064820152608490fd5b1561582957565b60405162461bcd60e51b815260206004820152601b60248201527a436865636b706f696e743a2064656372656173696e67206b65797360281b6044820152606490fd5b6011549192918015615936576158fc91818561589461588f61314d60209661306f565b61308d565b926158a3845163ffffffff1690565b6158ba63ffffffff91828416928391161115615822565b6158d46158cb865163ffffffff1690565b63ffffffff1690565b0361590057506158e961314d6158ee9361306f565b613d07565b01516001600160e01b031690565b9190565b9050615931915061591e61591261066b565b63ffffffff9092168252565b6001600160e01b03871681850152613d1e565b6158ee565b5061595a9061594661591261066b565b6001600160e01b0384166020820152613d1e565b60009190565b61597481600052600f602052604060002090565b6002916001600283015492015492600b546001915b8161ffff841611156159be57505050906159b36159ae6118c36133b86159b995611216565b614ee2565b92612fd6565b101590565b909194615a15615a1b91615a0d615a026159dd6117f26117ed8c612f92565b6118186159e98a611226565b60408351600090815260209283522092015161ffff1690565b978589015490612fd6565b965490612fd6565b95612f7a565b9190615989565b6000908082526001602092600f6020526040926040822091825495848594015495600b54926001965b615a5b575b505050505050501190565b61ffff989596979884818a1611615ac957615a9e90615a7f6117f26117ed8c612f92565b90878452600e8652848420825185528652858585209201511690611246565b98878a01548701809711612f8d57615abd615ac39189989b5490612fd6565b98612f7a565b96615a4b565b5085989750615a50565b90615adf939291613702565b615ae881612d78565b6008811015610ef957806002615b0d9214159081615bee575b81615bd9575b50615c94565b615b2b6002615b1b83611216565b01805461ff001916610100179055565b6040518181527f789cf55be980739dad1d0699b93b58e806b51c9d96619bfa8fe0a28abaa7b30c90602090a1615b6081611206565b54615b685790565b615b76610d80601254610a81565b615b7f82611206565b5490803b156105185760405163c4d252f560e01b815260048101929092526000908290602490829084905af18015610ea857615bc6575b506000615bc282611206565b5590565b80610e9c615bd3926105a9565b38615bb6565b60079150615be681611435565b141538615b07565b9050615bf981611435565b600681141590615b01565b9080821015615c11575090565b905090565b60f81c9081602f1080615c8a575b15615c3657600191602f190160ff1690565b8160401080615c80575b15615c52576001916036190160ff1690565b8160601080615c76575b15615c6e576001916056190160ff1690565b600091508190565b5060678210615c5c565b5060478210615c40565b50603a8210615c24565b15615c9b57565b60405162461bcd60e51b815260206004820152601d60248201527f476f7665726e6f723a2070726f706f73616c206e6f74206163746976650000006044820152606490fdfe150214d74d59b7d1e90c73fc22ef3d991dd0a76b046543d4d80ab92d2a50328fb3b3f3b703cd84ce352197dcff232b1b5d3cfb2025ce47cf04742d0651f1af8831ecc21a745e3968a04e9570e4425bc18fa8019c68028196b546d1669c200c688be0079c531659141344cd1fd0a4f28419497f9722a3daafe3b4186f6b6457e0a2646970667358221220a9a069654e8f8c2e2a589cf6659218435321960488ea380009e8ce7255c779ba64736f6c6343000817003331ecc21a745e3968a04e9570e4425bc18fa8019c68028196b546d1669c200c68",
  "linkReferences": {},
  "deployedLinkReferences": {}
}